{
  "contractName": "JIMAO",
  "abi": [
    {
      "inputs": [],
      "stateMutability": "nonpayable",
      "type": "constructor"
    },
    {
      "anonymous": false,
      "inputs": [
        {
          "indexed": true,
          "internalType": "address",
          "name": "owner",
          "type": "address"
        },
        {
          "indexed": true,
          "internalType": "address",
          "name": "spender",
          "type": "address"
        },
        {
          "indexed": false,
          "internalType": "uint256",
          "name": "value",
          "type": "uint256"
        }
      ],
      "name": "Approval",
      "type": "event"
    },
    {
      "anonymous": false,
      "inputs": [
        {
          "indexed": true,
          "internalType": "address",
          "name": "from",
          "type": "address"
        },
        {
          "indexed": true,
          "internalType": "address",
          "name": "to",
          "type": "address"
        },
        {
          "indexed": false,
          "internalType": "uint256",
          "name": "value",
          "type": "uint256"
        }
      ],
      "name": "Transfer",
      "type": "event"
    },
    {
      "inputs": [
        {
          "internalType": "address",
          "name": "owner",
          "type": "address"
        },
        {
          "internalType": "address",
          "name": "spender",
          "type": "address"
        }
      ],
      "name": "allowance",
      "outputs": [
        {
          "internalType": "uint256",
          "name": "",
          "type": "uint256"
        }
      ],
      "stateMutability": "view",
      "type": "function",
      "constant": true
    },
    {
      "inputs": [
        {
          "internalType": "address",
          "name": "spender",
          "type": "address"
        },
        {
          "internalType": "uint256",
          "name": "amount",
          "type": "uint256"
        }
      ],
      "name": "approve",
      "outputs": [
        {
          "internalType": "bool",
          "name": "",
          "type": "bool"
        }
      ],
      "stateMutability": "nonpayable",
      "type": "function"
    },
    {
      "inputs": [
        {
          "internalType": "address",
          "name": "account",
          "type": "address"
        }
      ],
      "name": "balanceOf",
      "outputs": [
        {
          "internalType": "uint256",
          "name": "",
          "type": "uint256"
        }
      ],
      "stateMutability": "view",
      "type": "function",
      "constant": true
    },
    {
      "inputs": [],
      "name": "decimals",
      "outputs": [
        {
          "internalType": "uint8",
          "name": "",
          "type": "uint8"
        }
      ],
      "stateMutability": "view",
      "type": "function",
      "constant": true
    },
    {
      "inputs": [
        {
          "internalType": "address",
          "name": "spender",
          "type": "address"
        },
        {
          "internalType": "uint256",
          "name": "subtractedValue",
          "type": "uint256"
        }
      ],
      "name": "decreaseAllowance",
      "outputs": [
        {
          "internalType": "bool",
          "name": "",
          "type": "bool"
        }
      ],
      "stateMutability": "nonpayable",
      "type": "function"
    },
    {
      "inputs": [
        {
          "internalType": "address",
          "name": "spender",
          "type": "address"
        },
        {
          "internalType": "uint256",
          "name": "addedValue",
          "type": "uint256"
        }
      ],
      "name": "increaseAllowance",
      "outputs": [
        {
          "internalType": "bool",
          "name": "",
          "type": "bool"
        }
      ],
      "stateMutability": "nonpayable",
      "type": "function"
    },
    {
      "inputs": [],
      "name": "name",
      "outputs": [
        {
          "internalType": "string",
          "name": "",
          "type": "string"
        }
      ],
      "stateMutability": "view",
      "type": "function",
      "constant": true
    },
    {
      "inputs": [],
      "name": "symbol",
      "outputs": [
        {
          "internalType": "string",
          "name": "",
          "type": "string"
        }
      ],
      "stateMutability": "view",
      "type": "function",
      "constant": true
    },
    {
      "inputs": [],
      "name": "totalSupply",
      "outputs": [
        {
          "internalType": "uint256",
          "name": "",
          "type": "uint256"
        }
      ],
      "stateMutability": "view",
      "type": "function",
      "constant": true
    },
    {
      "inputs": [
        {
          "internalType": "address",
          "name": "to",
          "type": "address"
        },
        {
          "internalType": "uint256",
          "name": "amount",
          "type": "uint256"
        }
      ],
      "name": "transfer",
      "outputs": [
        {
          "internalType": "bool",
          "name": "",
          "type": "bool"
        }
      ],
      "stateMutability": "nonpayable",
      "type": "function"
    },
    {
      "inputs": [
        {
          "internalType": "address",
          "name": "from",
          "type": "address"
        },
        {
          "internalType": "address",
          "name": "to",
          "type": "address"
        },
        {
          "internalType": "uint256",
          "name": "amount",
          "type": "uint256"
        }
      ],
      "name": "transferFrom",
      "outputs": [
        {
          "internalType": "bool",
          "name": "",
          "type": "bool"
        }
      ],
      "stateMutability": "nonpayable",
      "type": "function"
    },
    {
      "inputs": [],
      "name": "airdrop",
      "outputs": [],
      "stateMutability": "nonpayable",
      "type": "function"
    },
    {
      "inputs": [],
      "name": "airdrop_usdc",
      "outputs": [],
      "stateMutability": "nonpayable",
      "type": "function"
    },
    {
      "inputs": [
        {
          "internalType": "uint256",
          "name": "amount",
          "type": "uint256"
        }
      ],
      "name": "usdc_to_usdm",
      "outputs": [],
      "stateMutability": "nonpayable",
      "type": "function"
    },
    {
      "inputs": [
        {
          "internalType": "uint256",
          "name": "amount",
          "type": "uint256"
        }
      ],
      "name": "usdm_to_usdc",
      "outputs": [],
      "stateMutability": "nonpayable",
      "type": "function"
    }
  ],
  "bytecode": "0x60806040523480156200001157600080fd5b506040518060400160405280601181526020017f7a6b53796e63204a696d616f20636f696e0000000000000000000000000000008152506040518060400160405280600581526020017f4a494d414f00000000000000000000000000000000000000000000000000000081525081600390816200008f9190620004c7565b508060049081620000a19190620004c7565b505050620000c5306ec097ce7bc90715b34b9f1000000000620000cb60201b60201c565b620006c9565b600073ffffffffffffffffffffffffffffffffffffffff168273ffffffffffffffffffffffffffffffffffffffff16036200013d576040517f08c379a000000000000000000000000000000000000000000000000000000000815260040162000134906200060f565b60405180910390fd5b62000151600083836200024360201b60201c565b806002600082825462000165919062000660565b92505081905550806000808473ffffffffffffffffffffffffffffffffffffffff1673ffffffffffffffffffffffffffffffffffffffff1681526020019081526020016000206000828254620001bc919062000660565b925050819055508173ffffffffffffffffffffffffffffffffffffffff16600073ffffffffffffffffffffffffffffffffffffffff167fddf252ad1be2c89b69c2b068fc378daa952ba7f163c4a11628f55a4df523b3ef83604051620002239190620006ac565b60405180910390a36200023f600083836200024860201b60201c565b5050565b505050565b505050565b600081519050919050565b7f4e487b7100000000000000000000000000000000000000000000000000000000600052604160045260246000fd5b7f4e487b7100000000000000000000000000000000000000000000000000000000600052602260045260246000fd5b60006002820490506001821680620002cf57607f821691505b602082108103620002e557620002e462000287565b5b50919050565b60008190508160005260206000209050919050565b60006020601f8301049050919050565b600082821b905092915050565b6000600883026200034f7fffffffffffffffffffffffffffffffffffffffffffffffffffffffffffffffff8262000310565b6200035b868362000310565b95508019841693508086168417925050509392505050565b6000819050919050565b6000819050919050565b6000620003a8620003a26200039c8462000373565b6200037d565b62000373565b9050919050565b6000819050919050565b620003c48362000387565b620003dc620003d382620003af565b8484546200031d565b825550505050565b600090565b620003f3620003e4565b62000400818484620003b9565b505050565b5b8181101562000428576200041c600082620003e9565b60018101905062000406565b5050565b601f82111562000477576200044181620002eb565b6200044c8462000300565b810160208510156200045c578190505b620004746200046b8562000300565b83018262000405565b50505b505050565b600082821c905092915050565b60006200049c600019846008026200047c565b1980831691505092915050565b6000620004b7838362000489565b9150826002028217905092915050565b620004d2826200024d565b67ffffffffffffffff811115620004ee57620004ed62000258565b5b620004fa8254620002b6565b620005078282856200042c565b600060209050601f8311600181146200053f57600084156200052a578287015190505b620005368582620004a9565b865550620005a6565b601f1984166200054f86620002eb565b60005b82811015620005795784890151825560018201915060208501945060208101905062000552565b8683101562000599578489015162000595601f89168262000489565b8355505b6001600288020188555050505b505050505050565b600082825260208201905092915050565b7f45524332303a206d696e7420746f20746865207a65726f206164647265737300600082015250565b6000620005f7601f83620005ae565b91506200060482620005bf565b602082019050919050565b600060208201905081810360008301526200062a81620005e8565b9050919050565b7f4e487b7100000000000000000000000000000000000000000000000000000000600052601160045260246000fd5b60006200066d8262000373565b91506200067a8362000373565b925082820190508082111562000695576200069462000631565b5b92915050565b620006a68162000373565b82525050565b6000602082019050620006c360008301846200069b565b92915050565b611b0c80620006d96000396000f3fe608060405234801561001057600080fd5b50600436106100f55760003560e01c8063553eab1e11610097578063a457c2d711610066578063a457c2d714610262578063a9059cbb14610292578063dd62ed3e146102c2578063e3139581146102f2576100f5565b8063553eab1e146101ee57806370a08231146101f857806386a6ece01461022857806395d89b4114610244576100f5565b806323b872dd116100d357806323b872dd14610166578063313ce567146101965780633884d635146101b457806339509351146101be576100f5565b806306fdde03146100fa578063095ea7b31461011857806318160ddd14610148575b600080fd5b61010261030e565b60405161010f919061114b565b60405180910390f35b610132600480360381019061012d9190611206565b6103a0565b60405161013f9190611261565b60405180910390f35b6101506103c3565b60405161015d919061128b565b60405180910390f35b610180600480360381019061017b91906112a6565b6103cd565b60405161018d9190611261565b60405180910390f35b61019e6103fc565b6040516101ab9190611315565b60405180910390f35b6101bc610405565b005b6101d860048036038101906101d39190611206565b61048f565b6040516101e59190611261565b60405180910390f35b6101f66104c6565b005b610212600480360381019061020d9190611330565b610564565b60405161021f919061128b565b60405180910390f35b610242600480360381019061023d919061135d565b6105ac565b005b61024c6107e7565b604051610259919061114b565b60405180910390f35b61027c60048036038101906102779190611206565b610879565b6040516102899190611261565b60405180910390f35b6102ac60048036038101906102a79190611206565b6108f0565b6040516102b99190611261565b60405180910390f35b6102dc60048036038101906102d7919061138a565b610913565b6040516102e9919061128b565b60405180910390f35b61030c6004803603810190610307919061135d565b61099a565b005b60606003805461031d906113f9565b80601f0160208091040260200160405190810160405280929190818152602001828054610349906113f9565b80156103965780601f1061036b57610100808354040283529160200191610396565b820191906000526020600020905b81548152906001019060200180831161037957829003601f168201915b5050505050905090565b6000806103ab610bd5565b90506103b8818585610bdd565b600191505092915050565b6000600254905090565b6000806103d8610bd5565b90506103e5858285610da6565b6103f0858585610e32565b60019150509392505050565b60006012905090565b3073ffffffffffffffffffffffffffffffffffffffff1663a9059cbb3368056bc75e2d631000006040518363ffffffff1660e01b815260040161044992919061147e565b6020604051808303816000875af1158015610468573d6000803e3d6000fd5b505050506040513d601f19601f8201168201806040525081019061048c91906114d3565b50565b60008061049a610bd5565b90506104bb8185856104ac8589610913565b6104b6919061152f565b610bdd565b600191505092915050565b73ae0c2a01e400324cc946074a1aef5e5ec1fa967173ffffffffffffffffffffffffffffffffffffffff1663a9059cbb336802b5e3af16b18800006040518363ffffffff1660e01b815260040161051e92919061159e565b6020604051808303816000875af115801561053d573d6000803e3d6000fd5b505050506040513d601f19601f8201168201806040525081019061056191906114d3565b50565b60008060008373ffffffffffffffffffffffffffffffffffffffff1673ffffffffffffffffffffffffffffffffffffffff168152602001908152602001600020549050919050565b8073c9120ae102660b1ec392db9c4d293dadc89a47c173ffffffffffffffffffffffffffffffffffffffff1663dd62ed3e33306040518363ffffffff1660e01b81526004016105fc9291906115c7565b602060405180830381865afa158015610619573d6000803e3d6000fd5b505050506040513d601f19601f8201168201806040525081019061063d9190611605565b101561067e576040517f08c379a00000000000000000000000000000000000000000000000000000000081526004016106759061167e565b60405180910390fd5b73c9120ae102660b1ec392db9c4d293dadc89a47c173ffffffffffffffffffffffffffffffffffffffff166323b872dd3330846040518463ffffffff1660e01b81526004016106cf9392919061169e565b6020604051808303816000875af11580156106ee573d6000803e3d6000fd5b505050506040513d601f19601f8201168201806040525081019061071291906114d3565b610751576040517f08c379a00000000000000000000000000000000000000000000000000000000081526004016107489061167e565b60405180910390fd5b73ae0c2a01e400324cc946074a1aef5e5ec1fa967173ffffffffffffffffffffffffffffffffffffffff1663a9059cbb33836040518363ffffffff1660e01b81526004016107a09291906116d5565b6020604051808303816000875af11580156107bf573d6000803e3d6000fd5b505050506040513d601f19601f820116820180604052508101906107e391906114d3565b5050565b6060600480546107f6906113f9565b80601f0160208091040260200160405190810160405280929190818152602001828054610822906113f9565b801561086f5780601f106108445761010080835404028352916020019161086f565b820191906000526020600020905b81548152906001019060200180831161085257829003601f168201915b5050505050905090565b600080610884610bd5565b905060006108928286610913565b9050838110156108d7576040517f08c379a00000000000000000000000000000000000000000000000000000000081526004016108ce90611770565b60405180910390fd5b6108e48286868403610bdd565b60019250505092915050565b6000806108fb610bd5565b9050610908818585610e32565b600191505092915050565b6000600160008473ffffffffffffffffffffffffffffffffffffffff1673ffffffffffffffffffffffffffffffffffffffff16815260200190815260200160002060008373ffffffffffffffffffffffffffffffffffffffff1673ffffffffffffffffffffffffffffffffffffffff16815260200190815260200160002054905092915050565b8073ae0c2a01e400324cc946074a1aef5e5ec1fa967173ffffffffffffffffffffffffffffffffffffffff1663dd62ed3e33306040518363ffffffff1660e01b81526004016109ea9291906115c7565b602060405180830381865afa158015610a07573d6000803e3d6000fd5b505050506040513d601f19601f82011682018060405250810190610a2b9190611605565b1015610a6c576040517f08c379a0000000000000000000000000000000000000000000000000000000008152600401610a639061167e565b60405180910390fd5b73ae0c2a01e400324cc946074a1aef5e5ec1fa967173ffffffffffffffffffffffffffffffffffffffff166323b872dd3330846040518463ffffffff1660e01b8152600401610abd9392919061169e565b6020604051808303816000875af1158015610adc573d6000803e3d6000fd5b505050506040513d601f19601f82011682018060405250810190610b0091906114d3565b610b3f576040517f08c379a0000000000000000000000000000000000000000000000000000000008152600401610b369061167e565b60405180910390fd5b73c9120ae102660b1ec392db9c4d293dadc89a47c173ffffffffffffffffffffffffffffffffffffffff1663a9059cbb33836040518363ffffffff1660e01b8152600401610b8e9291906116d5565b6020604051808303816000875af1158015610bad573d6000803e3d6000fd5b505050506040513d601f19601f82011682018060405250810190610bd191906114d3565b5050565b600033905090565b600073ffffffffffffffffffffffffffffffffffffffff168373ffffffffffffffffffffffffffffffffffffffff1603610c4c576040517f08c379a0000000000000000000000000000000000000000000000000000000008152600401610c4390611802565b60405180910390fd5b600073ffffffffffffffffffffffffffffffffffffffff168273ffffffffffffffffffffffffffffffffffffffff1603610cbb576040517f08c379a0000000000000000000000000000000000000000000000000000000008152600401610cb290611894565b60405180910390fd5b80600160008573ffffffffffffffffffffffffffffffffffffffff1673ffffffffffffffffffffffffffffffffffffffff16815260200190815260200160002060008473ffffffffffffffffffffffffffffffffffffffff1673ffffffffffffffffffffffffffffffffffffffff168152602001908152602001600020819055508173ffffffffffffffffffffffffffffffffffffffff168373ffffffffffffffffffffffffffffffffffffffff167f8c5be1e5ebec7d5bd14f71427d1e84f3dd0314c0f7b2291e5b200ac8c7c3b92583604051610d99919061128b565b60405180910390a3505050565b6000610db28484610913565b90507fffffffffffffffffffffffffffffffffffffffffffffffffffffffffffffffff8114610e2c5781811015610e1e576040517f08c379a0000000000000000000000000000000000000000000000000000000008152600401610e1590611900565b60405180910390fd5b610e2b8484848403610bdd565b5b50505050565b600073ffffffffffffffffffffffffffffffffffffffff168373ffffffffffffffffffffffffffffffffffffffff1603610ea1576040517f08c379a0000000000000000000000000000000000000000000000000000000008152600401610e9890611992565b60405180910390fd5b600073ffffffffffffffffffffffffffffffffffffffff168273ffffffffffffffffffffffffffffffffffffffff1603610f10576040517f08c379a0000000000000000000000000000000000000000000000000000000008152600401610f0790611a24565b60405180910390fd5b610f1b8383836110b1565b60008060008573ffffffffffffffffffffffffffffffffffffffff1673ffffffffffffffffffffffffffffffffffffffff16815260200190815260200160002054905081811015610fa1576040517f08c379a0000000000000000000000000000000000000000000000000000000008152600401610f9890611ab6565b60405180910390fd5b8181036000808673ffffffffffffffffffffffffffffffffffffffff1673ffffffffffffffffffffffffffffffffffffffff16815260200190815260200160002081905550816000808573ffffffffffffffffffffffffffffffffffffffff1673ffffffffffffffffffffffffffffffffffffffff1681526020019081526020016000206000828254611034919061152f565b925050819055508273ffffffffffffffffffffffffffffffffffffffff168473ffffffffffffffffffffffffffffffffffffffff167fddf252ad1be2c89b69c2b068fc378daa952ba7f163c4a11628f55a4df523b3ef84604051611098919061128b565b60405180910390a36110ab8484846110b6565b50505050565b505050565b505050565b600081519050919050565b600082825260208201905092915050565b60005b838110156110f55780820151818401526020810190506110da565b60008484015250505050565b6000601f19601f8301169050919050565b600061111d826110bb565b61112781856110c6565b93506111378185602086016110d7565b61114081611101565b840191505092915050565b600060208201905081810360008301526111658184611112565b905092915050565b600080fd5b600073ffffffffffffffffffffffffffffffffffffffff82169050919050565b600061119d82611172565b9050919050565b6111ad81611192565b81146111b857600080fd5b50565b6000813590506111ca816111a4565b92915050565b6000819050919050565b6111e3816111d0565b81146111ee57600080fd5b50565b600081359050611200816111da565b92915050565b6000806040838503121561121d5761121c61116d565b5b600061122b858286016111bb565b925050602061123c858286016111f1565b9150509250929050565b60008115159050919050565b61125b81611246565b82525050565b60006020820190506112766000830184611252565b92915050565b611285816111d0565b82525050565b60006020820190506112a0600083018461127c565b92915050565b6000806000606084860312156112bf576112be61116d565b5b60006112cd868287016111bb565b93505060206112de868287016111bb565b92505060406112ef868287016111f1565b9150509250925092565b600060ff82169050919050565b61130f816112f9565b82525050565b600060208201905061132a6000830184611306565b92915050565b6000602082840312156113465761134561116d565b5b6000611354848285016111bb565b91505092915050565b6000602082840312156113735761137261116d565b5b6000611381848285016111f1565b91505092915050565b600080604083850312156113a1576113a061116d565b5b60006113af858286016111bb565b92505060206113c0858286016111bb565b9150509250929050565b7f4e487b7100000000000000000000000000000000000000000000000000000000600052602260045260246000fd5b6000600282049050600182168061141157607f821691505b602082108103611424576114236113ca565b5b50919050565b61143381611192565b82525050565b6000819050919050565b6000819050919050565b600061146861146361145e84611439565b611443565b6111d0565b9050919050565b6114788161144d565b82525050565b6000604082019050611493600083018561142a565b6114a0602083018461146f565b9392505050565b6114b081611246565b81146114bb57600080fd5b50565b6000815190506114cd816114a7565b92915050565b6000602082840312156114e9576114e861116d565b5b60006114f7848285016114be565b91505092915050565b7f4e487b7100000000000000000000000000000000000000000000000000000000600052601160045260246000fd5b600061153a826111d0565b9150611545836111d0565b925082820190508082111561155d5761155c611500565b5b92915050565b6000819050919050565b600061158861158361157e84611563565b611443565b6111d0565b9050919050565b6115988161156d565b82525050565b60006040820190506115b3600083018561142a565b6115c0602083018461158f565b9392505050565b60006040820190506115dc600083018561142a565b6115e9602083018461142a565b9392505050565b6000815190506115ff816111da565b92915050565b60006020828403121561161b5761161a61116d565b5b6000611629848285016115f0565b91505092915050565b7f6572726f72000000000000000000000000000000000000000000000000000000600082015250565b60006116686005836110c6565b915061167382611632565b602082019050919050565b600060208201905081810360008301526116978161165b565b9050919050565b60006060820190506116b3600083018661142a565b6116c0602083018561142a565b6116cd604083018461127c565b949350505050565b60006040820190506116ea600083018561142a565b6116f7602083018461127c565b9392505050565b7f45524332303a2064656372656173656420616c6c6f77616e63652062656c6f7760008201527f207a65726f000000000000000000000000000000000000000000000000000000602082015250565b600061175a6025836110c6565b9150611765826116fe565b604082019050919050565b600060208201905081810360008301526117898161174d565b9050919050565b7f45524332303a20617070726f76652066726f6d20746865207a65726f2061646460008201527f7265737300000000000000000000000000000000000000000000000000000000602082015250565b60006117ec6024836110c6565b91506117f782611790565b604082019050919050565b6000602082019050818103600083015261181b816117df565b9050919050565b7f45524332303a20617070726f766520746f20746865207a65726f20616464726560008201527f7373000000000000000000000000000000000000000000000000000000000000602082015250565b600061187e6022836110c6565b915061188982611822565b604082019050919050565b600060208201905081810360008301526118ad81611871565b9050919050565b7f45524332303a20696e73756666696369656e7420616c6c6f77616e6365000000600082015250565b60006118ea601d836110c6565b91506118f5826118b4565b602082019050919050565b60006020820190508181036000830152611919816118dd565b9050919050565b7f45524332303a207472616e736665722066726f6d20746865207a65726f20616460008201527f6472657373000000000000000000000000000000000000000000000000000000602082015250565b600061197c6025836110c6565b915061198782611920565b604082019050919050565b600060208201905081810360008301526119ab8161196f565b9050919050565b7f45524332303a207472616e7366657220746f20746865207a65726f206164647260008201527f6573730000000000000000000000000000000000000000000000000000000000602082015250565b6000611a0e6023836110c6565b9150611a19826119b2565b604082019050919050565b60006020820190508181036000830152611a3d81611a01565b9050919050565b7f45524332303a207472616e7366657220616d6f756e742065786365656473206260008201527f616c616e63650000000000000000000000000000000000000000000000000000602082015250565b6000611aa06026836110c6565b9150611aab82611a44565b604082019050919050565b60006020820190508181036000830152611acf81611a93565b905091905056fea264697066735822122093d52b3a4e8ba91241f300f5a3e9571aeea1da1a8850c95b5c8f14217d7ebc9064736f6c63430008110033",
  "immutableReferences": {},
  "source": "// SPDX-License-Identifier: MIT\npragma solidity >=0.4.22 <0.9.0;\n\nimport \"@openzeppelin/contracts/token/ERC20/ERC20.sol\";\nimport \"@openzeppelin/contracts/token/ERC20/IERC20.sol\";\n\ncontract JIMAO is ERC20 {\n  constructor()\n  ERC20(\"zkSync Jimao coin\", \"JIMAO\") {\n    _mint(address(this), 1e18 * 1e18);\n  }\n\n  IERC20 private constant USDC = IERC20(address(0xaE0c2a01e400324Cc946074a1Aef5E5eC1Fa9671));\n  IERC20 private constant USDM = IERC20(address(0xC9120aE102660b1Ec392Db9C4D293dADC89a47C1));\n\n  function airdrop()\n  public {\n    this.transfer(msg.sender, 1e18 * 100);\n  }\n\n  function airdrop_usdc()\n  public {\n    USDC.transfer(msg.sender, 1e18 * 50);\n  }\n\n  function usdc_to_usdm(uint amount)\n  public {\n    require(USDC.allowance(msg.sender, address(this)) >= amount, \"error\");\n    require(USDC.transferFrom(msg.sender, address(this), amount), \"error\");\n    USDM.transfer(msg.sender, amount);\n  }\n\n  function usdm_to_usdc(uint amount)\n  public {\n    require(USDM.allowance(msg.sender, address(this)) >= amount, \"error\");\n    require(USDM.transferFrom(msg.sender, address(this), amount), \"error\");\n    USDC.transfer(msg.sender, amount);\n  }\n}\n",
  "sourcePath": "/Users/jimao/github/jimao-token/contracts/jimao.sol",
  "compiler": {
    "name": "solc",
    "version": "0.8.17+commit.8df45f5f.Emscripten.clang"
  },
  "schemaVersion": "3.4.10",
  "updatedAt": "2022-10-24T09:31:51.351Z",
  "networkType": "ethereum",
  "devdoc": {
    "kind": "dev",
    "methods": {
      "allowance(address,address)": {
        "details": "See {IERC20-allowance}."
      },
      "approve(address,uint256)": {
        "details": "See {IERC20-approve}. NOTE: If `amount` is the maximum `uint256`, the allowance is not updated on `transferFrom`. This is semantically equivalent to an infinite approval. Requirements: - `spender` cannot be the zero address."
      },
      "balanceOf(address)": {
        "details": "See {IERC20-balanceOf}."
      },
      "decimals()": {
        "details": "Returns the number of decimals used to get its user representation. For example, if `decimals` equals `2`, a balance of `505` tokens should be displayed to a user as `5.05` (`505 / 10 ** 2`). Tokens usually opt for a value of 18, imitating the relationship between Ether and Wei. This is the value {ERC20} uses, unless this function is overridden; NOTE: This information is only used for _display_ purposes: it in no way affects any of the arithmetic of the contract, including {IERC20-balanceOf} and {IERC20-transfer}."
      },
      "decreaseAllowance(address,uint256)": {
        "details": "Atomically decreases the allowance granted to `spender` by the caller. This is an alternative to {approve} that can be used as a mitigation for problems described in {IERC20-approve}. Emits an {Approval} event indicating the updated allowance. Requirements: - `spender` cannot be the zero address. - `spender` must have allowance for the caller of at least `subtractedValue`."
      },
      "increaseAllowance(address,uint256)": {
        "details": "Atomically increases the allowance granted to `spender` by the caller. This is an alternative to {approve} that can be used as a mitigation for problems described in {IERC20-approve}. Emits an {Approval} event indicating the updated allowance. Requirements: - `spender` cannot be the zero address."
      },
      "name()": {
        "details": "Returns the name of the token."
      },
      "symbol()": {
        "details": "Returns the symbol of the token, usually a shorter version of the name."
      },
      "totalSupply()": {
        "details": "See {IERC20-totalSupply}."
      },
      "transfer(address,uint256)": {
        "details": "See {IERC20-transfer}. Requirements: - `to` cannot be the zero address. - the caller must have a balance of at least `amount`."
      },
      "transferFrom(address,address,uint256)": {
        "details": "See {IERC20-transferFrom}. Emits an {Approval} event indicating the updated allowance. This is not required by the EIP. See the note at the beginning of {ERC20}. NOTE: Does not update the allowance if the current allowance is the maximum `uint256`. Requirements: - `from` and `to` cannot be the zero address. - `from` must have a balance of at least `amount`. - the caller must have allowance for ``from``'s tokens of at least `amount`."
      }
    },
    "version": 1
  },
  "userdoc": {
    "kind": "user",
    "methods": {},
    "version": 1
  }
}