{
  "contractName": "JIMAO",
  "abi": [
    {
      "inputs": [],
      "stateMutability": "nonpayable",
      "type": "constructor"
    },
    {
      "anonymous": false,
      "inputs": [
        {
          "indexed": true,
          "internalType": "address",
          "name": "owner",
          "type": "address"
        },
        {
          "indexed": true,
          "internalType": "address",
          "name": "spender",
          "type": "address"
        },
        {
          "indexed": false,
          "internalType": "uint256",
          "name": "value",
          "type": "uint256"
        }
      ],
      "name": "Approval",
      "type": "event"
    },
    {
      "anonymous": false,
      "inputs": [
        {
          "indexed": true,
          "internalType": "address",
          "name": "from",
          "type": "address"
        },
        {
          "indexed": true,
          "internalType": "address",
          "name": "to",
          "type": "address"
        },
        {
          "indexed": false,
          "internalType": "uint256",
          "name": "value",
          "type": "uint256"
        }
      ],
      "name": "Transfer",
      "type": "event"
    },
    {
      "inputs": [
        {
          "internalType": "address",
          "name": "owner",
          "type": "address"
        },
        {
          "internalType": "address",
          "name": "spender",
          "type": "address"
        }
      ],
      "name": "allowance",
      "outputs": [
        {
          "internalType": "uint256",
          "name": "",
          "type": "uint256"
        }
      ],
      "stateMutability": "view",
      "type": "function",
      "constant": true
    },
    {
      "inputs": [
        {
          "internalType": "address",
          "name": "spender",
          "type": "address"
        },
        {
          "internalType": "uint256",
          "name": "amount",
          "type": "uint256"
        }
      ],
      "name": "approve",
      "outputs": [
        {
          "internalType": "bool",
          "name": "",
          "type": "bool"
        }
      ],
      "stateMutability": "nonpayable",
      "type": "function"
    },
    {
      "inputs": [
        {
          "internalType": "address",
          "name": "account",
          "type": "address"
        }
      ],
      "name": "balanceOf",
      "outputs": [
        {
          "internalType": "uint256",
          "name": "",
          "type": "uint256"
        }
      ],
      "stateMutability": "view",
      "type": "function",
      "constant": true
    },
    {
      "inputs": [],
      "name": "decimals",
      "outputs": [
        {
          "internalType": "uint8",
          "name": "",
          "type": "uint8"
        }
      ],
      "stateMutability": "view",
      "type": "function",
      "constant": true
    },
    {
      "inputs": [
        {
          "internalType": "address",
          "name": "spender",
          "type": "address"
        },
        {
          "internalType": "uint256",
          "name": "subtractedValue",
          "type": "uint256"
        }
      ],
      "name": "decreaseAllowance",
      "outputs": [
        {
          "internalType": "bool",
          "name": "",
          "type": "bool"
        }
      ],
      "stateMutability": "nonpayable",
      "type": "function"
    },
    {
      "inputs": [
        {
          "internalType": "address",
          "name": "spender",
          "type": "address"
        },
        {
          "internalType": "uint256",
          "name": "addedValue",
          "type": "uint256"
        }
      ],
      "name": "increaseAllowance",
      "outputs": [
        {
          "internalType": "bool",
          "name": "",
          "type": "bool"
        }
      ],
      "stateMutability": "nonpayable",
      "type": "function"
    },
    {
      "inputs": [],
      "name": "name",
      "outputs": [
        {
          "internalType": "string",
          "name": "",
          "type": "string"
        }
      ],
      "stateMutability": "view",
      "type": "function",
      "constant": true
    },
    {
      "inputs": [],
      "name": "symbol",
      "outputs": [
        {
          "internalType": "string",
          "name": "",
          "type": "string"
        }
      ],
      "stateMutability": "view",
      "type": "function",
      "constant": true
    },
    {
      "inputs": [],
      "name": "totalSupply",
      "outputs": [
        {
          "internalType": "uint256",
          "name": "",
          "type": "uint256"
        }
      ],
      "stateMutability": "view",
      "type": "function",
      "constant": true
    },
    {
      "inputs": [
        {
          "internalType": "address",
          "name": "to",
          "type": "address"
        },
        {
          "internalType": "uint256",
          "name": "amount",
          "type": "uint256"
        }
      ],
      "name": "transfer",
      "outputs": [
        {
          "internalType": "bool",
          "name": "",
          "type": "bool"
        }
      ],
      "stateMutability": "nonpayable",
      "type": "function"
    },
    {
      "inputs": [
        {
          "internalType": "address",
          "name": "from",
          "type": "address"
        },
        {
          "internalType": "address",
          "name": "to",
          "type": "address"
        },
        {
          "internalType": "uint256",
          "name": "amount",
          "type": "uint256"
        }
      ],
      "name": "transferFrom",
      "outputs": [
        {
          "internalType": "bool",
          "name": "",
          "type": "bool"
        }
      ],
      "stateMutability": "nonpayable",
      "type": "function"
    },
    {
      "inputs": [],
      "name": "airdrop",
      "outputs": [],
      "stateMutability": "nonpayable",
      "type": "function"
    }
  ],
  "bytecode": "0x60806040523480156200001157600080fd5b506040518060400160405280601181526020017f7a6b53796e63204a696d616f20636f696e0000000000000000000000000000008152506040518060400160405280600581526020017f4a494d414f00000000000000000000000000000000000000000000000000000081525081600390816200008f9190620004c7565b508060049081620000a19190620004c7565b505050620000c5306ec097ce7bc90715b34b9f1000000000620000cb60201b60201c565b620006c9565b600073ffffffffffffffffffffffffffffffffffffffff168273ffffffffffffffffffffffffffffffffffffffff16036200013d576040517f08c379a000000000000000000000000000000000000000000000000000000000815260040162000134906200060f565b60405180910390fd5b62000151600083836200024360201b60201c565b806002600082825462000165919062000660565b92505081905550806000808473ffffffffffffffffffffffffffffffffffffffff1673ffffffffffffffffffffffffffffffffffffffff1681526020019081526020016000206000828254620001bc919062000660565b925050819055508173ffffffffffffffffffffffffffffffffffffffff16600073ffffffffffffffffffffffffffffffffffffffff167fddf252ad1be2c89b69c2b068fc378daa952ba7f163c4a11628f55a4df523b3ef83604051620002239190620006ac565b60405180910390a36200023f600083836200024860201b60201c565b5050565b505050565b505050565b600081519050919050565b7f4e487b7100000000000000000000000000000000000000000000000000000000600052604160045260246000fd5b7f4e487b7100000000000000000000000000000000000000000000000000000000600052602260045260246000fd5b60006002820490506001821680620002cf57607f821691505b602082108103620002e557620002e462000287565b5b50919050565b60008190508160005260206000209050919050565b60006020601f8301049050919050565b600082821b905092915050565b6000600883026200034f7fffffffffffffffffffffffffffffffffffffffffffffffffffffffffffffffff8262000310565b6200035b868362000310565b95508019841693508086168417925050509392505050565b6000819050919050565b6000819050919050565b6000620003a8620003a26200039c8462000373565b6200037d565b62000373565b9050919050565b6000819050919050565b620003c48362000387565b620003dc620003d382620003af565b8484546200031d565b825550505050565b600090565b620003f3620003e4565b62000400818484620003b9565b505050565b5b8181101562000428576200041c600082620003e9565b60018101905062000406565b5050565b601f82111562000477576200044181620002eb565b6200044c8462000300565b810160208510156200045c578190505b620004746200046b8562000300565b83018262000405565b50505b505050565b600082821c905092915050565b60006200049c600019846008026200047c565b1980831691505092915050565b6000620004b7838362000489565b9150826002028217905092915050565b620004d2826200024d565b67ffffffffffffffff811115620004ee57620004ed62000258565b5b620004fa8254620002b6565b620005078282856200042c565b600060209050601f8311600181146200053f57600084156200052a578287015190505b620005368582620004a9565b865550620005a6565b601f1984166200054f86620002eb565b60005b82811015620005795784890151825560018201915060208501945060208101905062000552565b8683101562000599578489015162000595601f89168262000489565b8355505b6001600288020188555050505b505050505050565b600082825260208201905092915050565b7f45524332303a206d696e7420746f20746865207a65726f206164647265737300600082015250565b6000620005f7601f83620005ae565b91506200060482620005bf565b602082019050919050565b600060208201905081810360008301526200062a81620005e8565b9050919050565b7f4e487b7100000000000000000000000000000000000000000000000000000000600052601160045260246000fd5b60006200066d8262000373565b91506200067a8362000373565b925082820190508082111562000695576200069462000631565b5b92915050565b620006a68162000373565b82525050565b6000602082019050620006c360008301846200069b565b92915050565b6113ad80620006d96000396000f3fe608060405234801561001057600080fd5b50600436106100b45760003560e01c80633950935111610071578063395093511461017d57806370a08231146101ad57806395d89b41146101dd578063a457c2d7146101fb578063a9059cbb1461022b578063dd62ed3e1461025b576100b4565b806306fdde03146100b9578063095ea7b3146100d757806318160ddd1461010757806323b872dd14610125578063313ce567146101555780633884d63514610173575b600080fd5b6100c161028b565b6040516100ce9190610bb4565b60405180910390f35b6100f160048036038101906100ec9190610c6f565b61031d565b6040516100fe9190610cca565b60405180910390f35b61010f610340565b60405161011c9190610cf4565b60405180910390f35b61013f600480360381019061013a9190610d0f565b61034a565b60405161014c9190610cca565b60405180910390f35b61015d610379565b60405161016a9190610d7e565b60405180910390f35b61017b610382565b005b61019760048036038101906101929190610c6f565b61040c565b6040516101a49190610cca565b60405180910390f35b6101c760048036038101906101c29190610d99565b610443565b6040516101d49190610cf4565b60405180910390f35b6101e561048b565b6040516101f29190610bb4565b60405180910390f35b61021560048036038101906102109190610c6f565b61051d565b6040516102229190610cca565b60405180910390f35b61024560048036038101906102409190610c6f565b610594565b6040516102529190610cca565b60405180910390f35b61027560048036038101906102709190610dc6565b6105b7565b6040516102829190610cf4565b60405180910390f35b60606003805461029a90610e35565b80601f01602080910402602001604051908101604052809291908181526020018280546102c690610e35565b80156103135780601f106102e857610100808354040283529160200191610313565b820191906000526020600020905b8154815290600101906020018083116102f657829003601f168201915b5050505050905090565b60008061032861063e565b9050610335818585610646565b600191505092915050565b6000600254905090565b60008061035561063e565b905061036285828561080f565b61036d85858561089b565b60019150509392505050565b60006012905090565b3073ffffffffffffffffffffffffffffffffffffffff1663a9059cbb3368056bc75e2d631000006040518363ffffffff1660e01b81526004016103c6929190610eba565b6020604051808303816000875af11580156103e5573d6000803e3d6000fd5b505050506040513d601f19601f820116820180604052508101906104099190610f0f565b50565b60008061041761063e565b905061043881858561042985896105b7565b6104339190610f6b565b610646565b600191505092915050565b60008060008373ffffffffffffffffffffffffffffffffffffffff1673ffffffffffffffffffffffffffffffffffffffff168152602001908152602001600020549050919050565b60606004805461049a90610e35565b80601f01602080910402602001604051908101604052809291908181526020018280546104c690610e35565b80156105135780601f106104e857610100808354040283529160200191610513565b820191906000526020600020905b8154815290600101906020018083116104f657829003601f168201915b5050505050905090565b60008061052861063e565b9050600061053682866105b7565b90508381101561057b576040517f08c379a000000000000000000000000000000000000000000000000000000000815260040161057290611011565b60405180910390fd5b6105888286868403610646565b60019250505092915050565b60008061059f61063e565b90506105ac81858561089b565b600191505092915050565b6000600160008473ffffffffffffffffffffffffffffffffffffffff1673ffffffffffffffffffffffffffffffffffffffff16815260200190815260200160002060008373ffffffffffffffffffffffffffffffffffffffff1673ffffffffffffffffffffffffffffffffffffffff16815260200190815260200160002054905092915050565b600033905090565b600073ffffffffffffffffffffffffffffffffffffffff168373ffffffffffffffffffffffffffffffffffffffff16036106b5576040517f08c379a00000000000000000000000000000000000000000000000000000000081526004016106ac906110a3565b60405180910390fd5b600073ffffffffffffffffffffffffffffffffffffffff168273ffffffffffffffffffffffffffffffffffffffff1603610724576040517f08c379a000000000000000000000000000000000000000000000000000000000815260040161071b90611135565b60405180910390fd5b80600160008573ffffffffffffffffffffffffffffffffffffffff1673ffffffffffffffffffffffffffffffffffffffff16815260200190815260200160002060008473ffffffffffffffffffffffffffffffffffffffff1673ffffffffffffffffffffffffffffffffffffffff168152602001908152602001600020819055508173ffffffffffffffffffffffffffffffffffffffff168373ffffffffffffffffffffffffffffffffffffffff167f8c5be1e5ebec7d5bd14f71427d1e84f3dd0314c0f7b2291e5b200ac8c7c3b925836040516108029190610cf4565b60405180910390a3505050565b600061081b84846105b7565b90507fffffffffffffffffffffffffffffffffffffffffffffffffffffffffffffffff81146108955781811015610887576040517f08c379a000000000000000000000000000000000000000000000000000000000815260040161087e906111a1565b60405180910390fd5b6108948484848403610646565b5b50505050565b600073ffffffffffffffffffffffffffffffffffffffff168373ffffffffffffffffffffffffffffffffffffffff160361090a576040517f08c379a000000000000000000000000000000000000000000000000000000000815260040161090190611233565b60405180910390fd5b600073ffffffffffffffffffffffffffffffffffffffff168273ffffffffffffffffffffffffffffffffffffffff1603610979576040517f08c379a0000000000000000000000000000000000000000000000000000000008152600401610970906112c5565b60405180910390fd5b610984838383610b1a565b60008060008573ffffffffffffffffffffffffffffffffffffffff1673ffffffffffffffffffffffffffffffffffffffff16815260200190815260200160002054905081811015610a0a576040517f08c379a0000000000000000000000000000000000000000000000000000000008152600401610a0190611357565b60405180910390fd5b8181036000808673ffffffffffffffffffffffffffffffffffffffff1673ffffffffffffffffffffffffffffffffffffffff16815260200190815260200160002081905550816000808573ffffffffffffffffffffffffffffffffffffffff1673ffffffffffffffffffffffffffffffffffffffff1681526020019081526020016000206000828254610a9d9190610f6b565b925050819055508273ffffffffffffffffffffffffffffffffffffffff168473ffffffffffffffffffffffffffffffffffffffff167fddf252ad1be2c89b69c2b068fc378daa952ba7f163c4a11628f55a4df523b3ef84604051610b019190610cf4565b60405180910390a3610b14848484610b1f565b50505050565b505050565b505050565b600081519050919050565b600082825260208201905092915050565b60005b83811015610b5e578082015181840152602081019050610b43565b60008484015250505050565b6000601f19601f8301169050919050565b6000610b8682610b24565b610b908185610b2f565b9350610ba0818560208601610b40565b610ba981610b6a565b840191505092915050565b60006020820190508181036000830152610bce8184610b7b565b905092915050565b600080fd5b600073ffffffffffffffffffffffffffffffffffffffff82169050919050565b6000610c0682610bdb565b9050919050565b610c1681610bfb565b8114610c2157600080fd5b50565b600081359050610c3381610c0d565b92915050565b6000819050919050565b610c4c81610c39565b8114610c5757600080fd5b50565b600081359050610c6981610c43565b92915050565b60008060408385031215610c8657610c85610bd6565b5b6000610c9485828601610c24565b9250506020610ca585828601610c5a565b9150509250929050565b60008115159050919050565b610cc481610caf565b82525050565b6000602082019050610cdf6000830184610cbb565b92915050565b610cee81610c39565b82525050565b6000602082019050610d096000830184610ce5565b92915050565b600080600060608486031215610d2857610d27610bd6565b5b6000610d3686828701610c24565b9350506020610d4786828701610c24565b9250506040610d5886828701610c5a565b9150509250925092565b600060ff82169050919050565b610d7881610d62565b82525050565b6000602082019050610d936000830184610d6f565b92915050565b600060208284031215610daf57610dae610bd6565b5b6000610dbd84828501610c24565b91505092915050565b60008060408385031215610ddd57610ddc610bd6565b5b6000610deb85828601610c24565b9250506020610dfc85828601610c24565b9150509250929050565b7f4e487b7100000000000000000000000000000000000000000000000000000000600052602260045260246000fd5b60006002820490506001821680610e4d57607f821691505b602082108103610e6057610e5f610e06565b5b50919050565b610e6f81610bfb565b82525050565b6000819050919050565b6000819050919050565b6000610ea4610e9f610e9a84610e75565b610e7f565b610c39565b9050919050565b610eb481610e89565b82525050565b6000604082019050610ecf6000830185610e66565b610edc6020830184610eab565b9392505050565b610eec81610caf565b8114610ef757600080fd5b50565b600081519050610f0981610ee3565b92915050565b600060208284031215610f2557610f24610bd6565b5b6000610f3384828501610efa565b91505092915050565b7f4e487b7100000000000000000000000000000000000000000000000000000000600052601160045260246000fd5b6000610f7682610c39565b9150610f8183610c39565b9250828201905080821115610f9957610f98610f3c565b5b92915050565b7f45524332303a2064656372656173656420616c6c6f77616e63652062656c6f7760008201527f207a65726f000000000000000000000000000000000000000000000000000000602082015250565b6000610ffb602583610b2f565b915061100682610f9f565b604082019050919050565b6000602082019050818103600083015261102a81610fee565b9050919050565b7f45524332303a20617070726f76652066726f6d20746865207a65726f2061646460008201527f7265737300000000000000000000000000000000000000000000000000000000602082015250565b600061108d602483610b2f565b915061109882611031565b604082019050919050565b600060208201905081810360008301526110bc81611080565b9050919050565b7f45524332303a20617070726f766520746f20746865207a65726f20616464726560008201527f7373000000000000000000000000000000000000000000000000000000000000602082015250565b600061111f602283610b2f565b915061112a826110c3565b604082019050919050565b6000602082019050818103600083015261114e81611112565b9050919050565b7f45524332303a20696e73756666696369656e7420616c6c6f77616e6365000000600082015250565b600061118b601d83610b2f565b915061119682611155565b602082019050919050565b600060208201905081810360008301526111ba8161117e565b9050919050565b7f45524332303a207472616e736665722066726f6d20746865207a65726f20616460008201527f6472657373000000000000000000000000000000000000000000000000000000602082015250565b600061121d602583610b2f565b9150611228826111c1565b604082019050919050565b6000602082019050818103600083015261124c81611210565b9050919050565b7f45524332303a207472616e7366657220746f20746865207a65726f206164647260008201527f6573730000000000000000000000000000000000000000000000000000000000602082015250565b60006112af602383610b2f565b91506112ba82611253565b604082019050919050565b600060208201905081810360008301526112de816112a2565b9050919050565b7f45524332303a207472616e7366657220616d6f756e742065786365656473206260008201527f616c616e63650000000000000000000000000000000000000000000000000000602082015250565b6000611341602683610b2f565b915061134c826112e5565b604082019050919050565b6000602082019050818103600083015261137081611334565b905091905056fea2646970667358221220005bdfaeae250b92f5521107c4f01479ccaebc9e177d90acb3bdc87343b1bd6664736f6c63430008110033",
  "immutableReferences": {},
  "source": "// SPDX-License-Identifier: MIT\npragma solidity >=0.4.22 <0.9.0;\n\nimport \"@openzeppelin/contracts/token/ERC20/ERC20.sol\";\n\ncontract JIMAO is ERC20 {\n  constructor()\n  ERC20(\"zkSync Jimao coin\", \"JIMAO\") {\n    _mint(address(this), 1e18 * 1e18);\n  }\n\n  function airdrop()\n  public {\n    this.transfer(msg.sender, 1e18 * 100);\n  }\n}\n",
  "sourcePath": "/Users/jimao/github/jimao-token/contracts/jimao.sol",
  "compiler": {
    "name": "solc",
    "version": "0.8.17+commit.8df45f5f.Emscripten.clang"
  },
  "schemaVersion": "3.4.10",
  "updatedAt": "2022-10-24T06:46:18.731Z",
  "networkType": "ethereum",
  "devdoc": {
    "kind": "dev",
    "methods": {
      "allowance(address,address)": {
        "details": "See {IERC20-allowance}."
      },
      "approve(address,uint256)": {
        "details": "See {IERC20-approve}. NOTE: If `amount` is the maximum `uint256`, the allowance is not updated on `transferFrom`. This is semantically equivalent to an infinite approval. Requirements: - `spender` cannot be the zero address."
      },
      "balanceOf(address)": {
        "details": "See {IERC20-balanceOf}."
      },
      "decimals()": {
        "details": "Returns the number of decimals used to get its user representation. For example, if `decimals` equals `2`, a balance of `505` tokens should be displayed to a user as `5.05` (`505 / 10 ** 2`). Tokens usually opt for a value of 18, imitating the relationship between Ether and Wei. This is the value {ERC20} uses, unless this function is overridden; NOTE: This information is only used for _display_ purposes: it in no way affects any of the arithmetic of the contract, including {IERC20-balanceOf} and {IERC20-transfer}."
      },
      "decreaseAllowance(address,uint256)": {
        "details": "Atomically decreases the allowance granted to `spender` by the caller. This is an alternative to {approve} that can be used as a mitigation for problems described in {IERC20-approve}. Emits an {Approval} event indicating the updated allowance. Requirements: - `spender` cannot be the zero address. - `spender` must have allowance for the caller of at least `subtractedValue`."
      },
      "increaseAllowance(address,uint256)": {
        "details": "Atomically increases the allowance granted to `spender` by the caller. This is an alternative to {approve} that can be used as a mitigation for problems described in {IERC20-approve}. Emits an {Approval} event indicating the updated allowance. Requirements: - `spender` cannot be the zero address."
      },
      "name()": {
        "details": "Returns the name of the token."
      },
      "symbol()": {
        "details": "Returns the symbol of the token, usually a shorter version of the name."
      },
      "totalSupply()": {
        "details": "See {IERC20-totalSupply}."
      },
      "transfer(address,uint256)": {
        "details": "See {IERC20-transfer}. Requirements: - `to` cannot be the zero address. - the caller must have a balance of at least `amount`."
      },
      "transferFrom(address,address,uint256)": {
        "details": "See {IERC20-transferFrom}. Emits an {Approval} event indicating the updated allowance. This is not required by the EIP. See the note at the beginning of {ERC20}. NOTE: Does not update the allowance if the current allowance is the maximum `uint256`. Requirements: - `from` and `to` cannot be the zero address. - `from` must have a balance of at least `amount`. - the caller must have allowance for ``from``'s tokens of at least `amount`."
      }
    },
    "version": 1
  },
  "userdoc": {
    "kind": "user",
    "methods": {},
    "version": 1
  }
}